{
    "contractName": "aHack",
    "abi": [
        {
            "anonymous": false,
            "inputs": [
                {
                    "indexed": true,
                    "internalType": "address",
                    "name": "owner",
                    "type": "address"
                },
                {
                    "indexed": true,
                    "internalType": "address",
                    "name": "approved",
                    "type": "address"
                },
                {
                    "indexed": true,
                    "internalType": "uint256",
                    "name": "tokenId",
                    "type": "uint256"
                }
            ],
            "name": "Approval",
            "type": "event"
        },
        {
            "anonymous": false,
            "inputs": [
                {
                    "indexed": true,
                    "internalType": "address",
                    "name": "owner",
                    "type": "address"
                },
                {
                    "indexed": true,
                    "internalType": "address",
                    "name": "operator",
                    "type": "address"
                },
                {
                    "indexed": false,
                    "internalType": "bool",
                    "name": "approved",
                    "type": "bool"
                }
            ],
            "name": "ApprovalForAll",
            "type": "event"
        },
        {
            "anonymous": false,
            "inputs": [
                {
                    "indexed": false,
                    "internalType": "address",
                    "name": "user",
                    "type": "address"
                }
            ],
            "name": "NftSold",
            "type": "event"
        },
        {
            "anonymous": false,
            "inputs": [
                {
                    "indexed": true,
                    "internalType": "address",
                    "name": "previousOwner",
                    "type": "address"
                },
                {
                    "indexed": true,
                    "internalType": "address",
                    "name": "newOwner",
                    "type": "address"
                }
            ],
            "name": "OwnershipTransferred",
            "type": "event"
        },
        {
            "anonymous": false,
            "inputs": [
                {
                    "indexed": false,
                    "internalType": "address",
                    "name": "account",
                    "type": "address"
                }
            ],
            "name": "Paused",
            "type": "event"
        },
        {
            "anonymous": false,
            "inputs": [
                {
                    "indexed": true,
                    "internalType": "bytes32",
                    "name": "role",
                    "type": "bytes32"
                },
                {
                    "indexed": true,
                    "internalType": "bytes32",
                    "name": "previousAdminRole",
                    "type": "bytes32"
                },
                {
                    "indexed": true,
                    "internalType": "bytes32",
                    "name": "newAdminRole",
                    "type": "bytes32"
                }
            ],
            "name": "RoleAdminChanged",
            "type": "event"
        },
        {
            "anonymous": false,
            "inputs": [
                {
                    "indexed": true,
                    "internalType": "bytes32",
                    "name": "role",
                    "type": "bytes32"
                },
                {
                    "indexed": true,
                    "internalType": "address",
                    "name": "account",
                    "type": "address"
                },
                {
                    "indexed": true,
                    "internalType": "address",
                    "name": "sender",
                    "type": "address"
                }
            ],
            "name": "RoleGranted",
            "type": "event"
        },
        {
            "anonymous": false,
            "inputs": [
                {
                    "indexed": true,
                    "internalType": "bytes32",
                    "name": "role",
                    "type": "bytes32"
                },
                {
                    "indexed": true,
                    "internalType": "address",
                    "name": "account",
                    "type": "address"
                },
                {
                    "indexed": true,
                    "internalType": "address",
                    "name": "sender",
                    "type": "address"
                }
            ],
            "name": "RoleRevoked",
            "type": "event"
        },
        {
            "anonymous": false,
            "inputs": [
                {
                    "indexed": true,
                    "internalType": "address",
                    "name": "from",
                    "type": "address"
                },
                {
                    "indexed": true,
                    "internalType": "address",
                    "name": "to",
                    "type": "address"
                },
                {
                    "indexed": true,
                    "internalType": "uint256",
                    "name": "tokenId",
                    "type": "uint256"
                }
            ],
            "name": "Transfer",
            "type": "event"
        },
        {
            "anonymous": false,
            "inputs": [
                {
                    "indexed": false,
                    "internalType": "address",
                    "name": "account",
                    "type": "address"
                }
            ],
            "name": "Unpaused",
            "type": "event"
        },
        {
            "inputs": [],
            "name": "DEFAULT_ADMIN_ROLE",
            "outputs": [
                {
                    "internalType": "bytes32",
                    "name": "",
                    "type": "bytes32"
                }
            ],
            "stateMutability": "view",
            "type": "function"
        },
        {
            "inputs": [],
            "name": "MINTER_ROLE",
            "outputs": [
                {
                    "internalType": "bytes32",
                    "name": "",
                    "type": "bytes32"
                }
            ],
            "stateMutability": "view",
            "type": "function"
        },
        {
            "inputs": [],
            "name": "PAUSER_ROLE",
            "outputs": [
                {
                    "internalType": "bytes32",
                    "name": "",
                    "type": "bytes32"
                }
            ],
            "stateMutability": "view",
            "type": "function"
        },
        {
            "inputs": [
                {
                    "internalType": "uint256",
                    "name": "amount",
                    "type": "uint256"
                },
                {
                    "internalType": "address",
                    "name": "asset",
                    "type": "address"
                }
            ],
            "name": "_borrow",
            "outputs": [
                {
                    "internalType": "uint256",
                    "name": "",
                    "type": "uint256"
                }
            ],
            "stateMutability": "nonpayable",
            "type": "function"
        },
        {
            "inputs": [],
            "name": "_claimAave",
            "outputs": [],
            "stateMutability": "nonpayable",
            "type": "function"
        },
        {
            "inputs": [
                {
                    "internalType": "address",
                    "name": "_to",
                    "type": "address"
                }
            ],
            "name": "_getNFT",
            "outputs": [],
            "stateMutability": "payable",
            "type": "function"
        },
        {
            "inputs": [],
            "name": "_repay",
            "outputs": [
                {
                    "internalType": "uint256",
                    "name": "",
                    "type": "uint256"
                }
            ],
            "stateMutability": "payable",
            "type": "function"
        },
        {
            "inputs": [
                {
                    "internalType": "address",
                    "name": "to",
                    "type": "address"
                },
                {
                    "internalType": "uint256",
                    "name": "tokenId",
                    "type": "uint256"
                }
            ],
            "name": "approve",
            "outputs": [],
            "stateMutability": "nonpayable",
            "type": "function"
        },
        {
            "inputs": [
                {
                    "internalType": "address",
                    "name": "",
                    "type": "address"
                },
                {
                    "internalType": "address",
                    "name": "",
                    "type": "address"
                }
            ],
            "name": "avgIndex",
            "outputs": [
                {
                    "internalType": "uint256",
                    "name": "",
                    "type": "uint256"
                }
            ],
            "stateMutability": "view",
            "type": "function"
        },
        {
            "inputs": [
                {
                    "internalType": "address",
                    "name": "owner",
                    "type": "address"
                }
            ],
            "name": "balanceOf",
            "outputs": [
                {
                    "internalType": "uint256",
                    "name": "",
                    "type": "uint256"
                }
            ],
            "stateMutability": "view",
            "type": "function"
        },
        {
            "inputs": [
                {
                    "internalType": "address",
                    "name": "_user",
                    "type": "address"
                },
                {
                    "internalType": "address",
                    "name": "_asset",
                    "type": "address"
                }
            ],
            "name": "balanceOf",
            "outputs": [
                {
                    "internalType": "uint256",
                    "name": "",
                    "type": "uint256"
                }
            ],
            "stateMutability": "view",
            "type": "function"
        },
        {
            "inputs": [
                {
                    "internalType": "uint256",
                    "name": "tokenId",
                    "type": "uint256"
                }
            ],
            "name": "burn",
            "outputs": [],
            "stateMutability": "nonpayable",
            "type": "function"
        },
        {
            "inputs": [
                {
                    "internalType": "address",
                    "name": "",
                    "type": "address"
                }
            ],
            "name": "collaterals",
            "outputs": [
                {
                    "internalType": "address",
                    "name": "",
                    "type": "address"
                }
            ],
            "stateMutability": "view",
            "type": "function"
        },
        {
            "inputs": [
                {
                    "internalType": "uint256",
                    "name": "tokenId",
                    "type": "uint256"
                }
            ],
            "name": "getApproved",
            "outputs": [
                {
                    "internalType": "address",
                    "name": "",
                    "type": "address"
                }
            ],
            "stateMutability": "view",
            "type": "function"
        },
        {
            "inputs": [
                {
                    "internalType": "address",
                    "name": "_asset",
                    "type": "address"
                }
            ],
            "name": "getLiquidityIndex",
            "outputs": [
                {
                    "internalType": "uint256",
                    "name": "",
                    "type": "uint256"
                }
            ],
            "stateMutability": "view",
            "type": "function"
        },
        {
            "inputs": [
                {
                    "internalType": "uint256",
                    "name": "amount",
                    "type": "uint256"
                },
                {
                    "internalType": "address",
                    "name": "user",
                    "type": "address"
                }
            ],
            "name": "getLoanFees",
            "outputs": [
                {
                    "internalType": "uint256",
                    "name": "",
                    "type": "uint256"
                }
            ],
            "stateMutability": "view",
            "type": "function"
        },
        {
            "inputs": [
                {
                    "internalType": "bytes32",
                    "name": "role",
                    "type": "bytes32"
                }
            ],
            "name": "getRoleAdmin",
            "outputs": [
                {
                    "internalType": "bytes32",
                    "name": "",
                    "type": "bytes32"
                }
            ],
            "stateMutability": "view",
            "type": "function"
        },
        {
            "inputs": [
                {
                    "internalType": "bytes32",
                    "name": "role",
                    "type": "bytes32"
                },
                {
                    "internalType": "uint256",
                    "name": "index",
                    "type": "uint256"
                }
            ],
            "name": "getRoleMember",
            "outputs": [
                {
                    "internalType": "address",
                    "name": "",
                    "type": "address"
                }
            ],
            "stateMutability": "view",
            "type": "function"
        },
        {
            "inputs": [
                {
                    "internalType": "bytes32",
                    "name": "role",
                    "type": "bytes32"
                }
            ],
            "name": "getRoleMemberCount",
            "outputs": [
                {
                    "internalType": "uint256",
                    "name": "",
                    "type": "uint256"
                }
            ],
            "stateMutability": "view",
            "type": "function"
        },
        {
            "inputs": [
                {
                    "internalType": "bytes32",
                    "name": "role",
                    "type": "bytes32"
                },
                {
                    "internalType": "address",
                    "name": "account",
                    "type": "address"
                }
            ],
            "name": "grantRole",
            "outputs": [],
            "stateMutability": "nonpayable",
            "type": "function"
        },
        {
            "inputs": [
                {
                    "internalType": "bytes32",
                    "name": "role",
                    "type": "bytes32"
                },
                {
                    "internalType": "address",
                    "name": "account",
                    "type": "address"
                }
            ],
            "name": "hasRole",
            "outputs": [
                {
                    "internalType": "bool",
                    "name": "",
                    "type": "bool"
                }
            ],
            "stateMutability": "view",
            "type": "function"
        },
        {
            "inputs": [
                {
                    "internalType": "string",
                    "name": "name",
                    "type": "string"
                },
                {
                    "internalType": "string",
                    "name": "symbol",
                    "type": "string"
                },
                {
                    "internalType": "uint256",
                    "name": "fees",
                    "type": "uint256"
                },
                {
                    "internalType": "string",
                    "name": "uri",
                    "type": "string"
                },
                {
                    "internalType": "address",
                    "name": "loopAdmin",
                    "type": "address"
                },
                {
                    "internalType": "contract ILendingPoolAddressesProvider",
                    "name": "_addressProvider",
                    "type": "address"
                }
            ],
            "name": "initialize",
            "outputs": [],
            "stateMutability": "nonpayable",
            "type": "function"
        },
        {
            "inputs": [
                {
                    "internalType": "string",
                    "name": "name",
                    "type": "string"
                },
                {
                    "internalType": "string",
                    "name": "symbol",
                    "type": "string"
                },
                {
                    "internalType": "string",
                    "name": "baseTokenURI",
                    "type": "string"
                }
            ],
            "name": "initialize",
            "outputs": [],
            "stateMutability": "nonpayable",
            "type": "function"
        },
        {
            "inputs": [
                {
                    "internalType": "address",
                    "name": "owner",
                    "type": "address"
                },
                {
                    "internalType": "address",
                    "name": "operator",
                    "type": "address"
                }
            ],
            "name": "isApprovedForAll",
            "outputs": [
                {
                    "internalType": "bool",
                    "name": "",
                    "type": "bool"
                }
            ],
            "stateMutability": "view",
            "type": "function"
        },
        {
            "inputs": [],
            "name": "loan",
            "outputs": [
                {
                    "internalType": "bool",
                    "name": "",
                    "type": "bool"
                }
            ],
            "stateMutability": "view",
            "type": "function"
        },
        {
            "inputs": [
                {
                    "internalType": "address",
                    "name": "",
                    "type": "address"
                }
            ],
            "name": "loanCumulatedFees",
            "outputs": [
                {
                    "internalType": "uint256",
                    "name": "",
                    "type": "uint256"
                }
            ],
            "stateMutability": "view",
            "type": "function"
        },
        {
            "inputs": [
                {
                    "internalType": "address",
                    "name": "",
                    "type": "address"
                }
            ],
            "name": "loopAaveMarket",
            "outputs": [
                {
                    "internalType": "bool",
                    "name": "",
                    "type": "bool"
                }
            ],
            "stateMutability": "view",
            "type": "function"
        },
        {
            "inputs": [
                {
                    "internalType": "address",
                    "name": "to",
                    "type": "address"
                }
            ],
            "name": "mint",
            "outputs": [],
            "stateMutability": "nonpayable",
            "type": "function"
        },
        {
            "inputs": [],
            "name": "name",
            "outputs": [
                {
                    "internalType": "string",
                    "name": "",
                    "type": "string"
                }
            ],
            "stateMutability": "view",
            "type": "function"
        },
        {
            "inputs": [],
            "name": "owner",
            "outputs": [
                {
                    "internalType": "address",
                    "name": "",
                    "type": "address"
                }
            ],
            "stateMutability": "view",
            "type": "function"
        },
        {
            "inputs": [
                {
                    "internalType": "uint256",
                    "name": "tokenId",
                    "type": "uint256"
                }
            ],
            "name": "ownerOf",
            "outputs": [
                {
                    "internalType": "address",
                    "name": "",
                    "type": "address"
                }
            ],
            "stateMutability": "view",
            "type": "function"
        },
        {
            "inputs": [],
            "name": "pause",
            "outputs": [],
            "stateMutability": "nonpayable",
            "type": "function"
        },
        {
            "inputs": [],
            "name": "paused",
            "outputs": [
                {
                    "internalType": "bool",
                    "name": "",
                    "type": "bool"
                }
            ],
            "stateMutability": "view",
            "type": "function"
        },
        {
            "inputs": [],
            "name": "renounceOwnership",
            "outputs": [],
            "stateMutability": "nonpayable",
            "type": "function"
        },
        {
            "inputs": [
                {
                    "internalType": "bytes32",
                    "name": "role",
                    "type": "bytes32"
                },
                {
                    "internalType": "address",
                    "name": "account",
                    "type": "address"
                }
            ],
            "name": "renounceRole",
            "outputs": [],
            "stateMutability": "nonpayable",
            "type": "function"
        },
        {
            "inputs": [
                {
                    "internalType": "bytes32",
                    "name": "role",
                    "type": "bytes32"
                },
                {
                    "internalType": "address",
                    "name": "account",
                    "type": "address"
                }
            ],
            "name": "revokeRole",
            "outputs": [],
            "stateMutability": "nonpayable",
            "type": "function"
        },
        {
            "inputs": [
                {
                    "internalType": "address",
                    "name": "from",
                    "type": "address"
                },
                {
                    "internalType": "address",
                    "name": "to",
                    "type": "address"
                },
                {
                    "internalType": "uint256",
                    "name": "tokenId",
                    "type": "uint256"
                }
            ],
            "name": "safeTransferFrom",
            "outputs": [],
            "stateMutability": "nonpayable",
            "type": "function"
        },
        {
            "inputs": [
                {
                    "internalType": "address",
                    "name": "from",
                    "type": "address"
                },
                {
                    "internalType": "address",
                    "name": "to",
                    "type": "address"
                },
                {
                    "internalType": "uint256",
                    "name": "tokenId",
                    "type": "uint256"
                },
                {
                    "internalType": "bytes",
                    "name": "_data",
                    "type": "bytes"
                }
            ],
            "name": "safeTransferFrom",
            "outputs": [],
            "stateMutability": "nonpayable",
            "type": "function"
        },
        {
            "inputs": [
                {
                    "internalType": "address",
                    "name": "operator",
                    "type": "address"
                },
                {
                    "internalType": "bool",
                    "name": "approved",
                    "type": "bool"
                }
            ],
            "name": "setApprovalForAll",
            "outputs": [],
            "stateMutability": "nonpayable",
            "type": "function"
        },
        {
            "inputs": [
                {
                    "internalType": "address",
                    "name": "_asset",
                    "type": "address"
                },
                {
                    "internalType": "address",
                    "name": "_collateral",
                    "type": "address"
                }
            ],
            "name": "setCollaterals",
            "outputs": [],
            "stateMutability": "nonpayable",
            "type": "function"
        },
        {
            "inputs": [
                {
                    "internalType": "uint16",
                    "name": "_code",
                    "type": "uint16"
                }
            ],
            "name": "setReferralCode",
            "outputs": [],
            "stateMutability": "nonpayable",
            "type": "function"
        },
        {
            "inputs": [
                {
                    "internalType": "bytes4",
                    "name": "interfaceId",
                    "type": "bytes4"
                }
            ],
            "name": "supportsInterface",
            "outputs": [
                {
                    "internalType": "bool",
                    "name": "",
                    "type": "bool"
                }
            ],
            "stateMutability": "view",
            "type": "function"
        },
        {
            "inputs": [],
            "name": "symbol",
            "outputs": [
                {
                    "internalType": "string",
                    "name": "",
                    "type": "string"
                }
            ],
            "stateMutability": "view",
            "type": "function"
        },
        {
            "inputs": [
                {
                    "internalType": "uint256",
                    "name": "index",
                    "type": "uint256"
                }
            ],
            "name": "tokenByIndex",
            "outputs": [
                {
                    "internalType": "uint256",
                    "name": "",
                    "type": "uint256"
                }
            ],
            "stateMutability": "view",
            "type": "function"
        },
        {
            "inputs": [
                {
                    "internalType": "address",
                    "name": "owner",
                    "type": "address"
                },
                {
                    "internalType": "uint256",
                    "name": "index",
                    "type": "uint256"
                }
            ],
            "name": "tokenOfOwnerByIndex",
            "outputs": [
                {
                    "internalType": "uint256",
                    "name": "",
                    "type": "uint256"
                }
            ],
            "stateMutability": "view",
            "type": "function"
        },
        {
            "inputs": [
                {
                    "internalType": "uint256",
                    "name": "tokenId",
                    "type": "uint256"
                }
            ],
            "name": "tokenURI",
            "outputs": [
                {
                    "internalType": "string",
                    "name": "",
                    "type": "string"
                }
            ],
            "stateMutability": "view",
            "type": "function"
        },
        {
            "inputs": [],
            "name": "totalSupply",
            "outputs": [
                {
                    "internalType": "uint256",
                    "name": "",
                    "type": "uint256"
                }
            ],
            "stateMutability": "view",
            "type": "function"
        },
        {
            "inputs": [
                {
                    "internalType": "address",
                    "name": "from",
                    "type": "address"
                },
                {
                    "internalType": "address",
                    "name": "to",
                    "type": "address"
                },
                {
                    "internalType": "uint256",
                    "name": "tokenId",
                    "type": "uint256"
                }
            ],
            "name": "transferFrom",
            "outputs": [],
            "stateMutability": "nonpayable",
            "type": "function"
        },
        {
            "inputs": [
                {
                    "internalType": "address",
                    "name": "newOwner",
                    "type": "address"
                }
            ],
            "name": "transferOwnership",
            "outputs": [],
            "stateMutability": "nonpayable",
            "type": "function"
        },
        {
            "inputs": [],
            "name": "unpause",
            "outputs": [],
            "stateMutability": "nonpayable",
            "type": "function"
        },
        {
            "inputs": [],
            "name": "valueStake",
            "outputs": [
                {
                    "internalType": "uint256",
                    "name": "",
                    "type": "uint256"
                }
            ],
            "stateMutability": "view",
            "type": "function"
        },
        {
            "inputs": [],
            "name": "version",
            "outputs": [
                {
                    "internalType": "string",
                    "name": "",
                    "type": "string"
                }
            ],
            "stateMutability": "view",
            "type": "function"
        },
        {
            "stateMutability": "payable",
            "type": "receive"
        }
    ],
    "bytecode": "608060405234801561001057600080fd5b50614883806100206000396000f3fe6080604052600436106103035760003560e01c8063715018a611610190578063b88d4fde116100dc578063e63ab1e911610095578063efb6ef071161006f578063efb6ef0714610977578063f2fde38b1461098c578063f7888aec146109ac578063fa43b69c146109cc57600080fd5b8063e63ab1e9146108c3578063e985e9c5146108f7578063eeb97d3b1461094057600080fd5b8063b88d4fde146107ed578063c87b56dd1461080d578063ca15c8731461082d578063d285b7b41461084d578063d53913931461086f578063d547741f146108a357600080fd5b806395d89b4111610149578063a217fddf11610123578063a217fddf14610778578063a22cb4651461078d578063a6487c53146107ad578063a7926442146107cd57600080fd5b806395d89b411461072257806399f11010146107375780639ac420631461074a57600080fd5b8063715018a6146106795780637303b22c1461068e5780638456cb59146106ae5780638da5cb5b146106c35780639010d07c146106e257806391d148541461070257600080fd5b80633f4ba83a1161024f5780635bae7f1b116102085780635fa0a368116101e25780635fa0a368146105f95780636352211e146106195780636a6278421461063957806370a082311461065957600080fd5b80635bae7f1b1461059f5780635c975abb146105d85780635f8850fb146105f157600080fd5b80633f4ba83a146104e457806342842e0e146104f957806342966c681461051957806349de8e21146105395780634f6ccce71461056a57806354fd4d501461058a57600080fd5b806318160ddd116102bc578063248a9ca311610296578063248a9ca3146104545780632f2ff15d146104845780632f745c59146104a457806336568abe146104c457600080fd5b806318160ddd146103f5578063232d46d21461041457806323b872dd1461043457600080fd5b806301ffc9a71461030f57806306fdac401461034457806306fdde031461035b578063081812fc1461037d578063095ea7b3146103b557806309a7ea7b146103d557600080fd5b3661030a57005b600080fd5b34801561031b57600080fd5b5061032f61032a3660046141c0565b6109ec565b60405190151581526020015b60405180910390f35b34801561035057600080fd5b506103596109fd565b005b34801561036757600080fd5b50610370610a33565b60405161033b919061450d565b34801561038957600080fd5b5061039d610398366004614160565b610ac5565b6040516001600160a01b03909116815260200161033b565b3480156103c157600080fd5b506103596103d0366004614117565b610b5a565b3480156103e157600080fd5b506103596103f0366004614282565b610c70565b34801561040157600080fd5b5060fd545b60405190815260200161033b565b34801561042057600080fd5b5061040661042f366004614179565b610e92565b34801561044057600080fd5b5061035961044f366004614028565b61139f565b34801561046057600080fd5b5061040661046f366004614160565b60009081526065602052604090206001015490565b34801561049057600080fd5b5061035961049f366004614179565b6113d1565b3480156104b057600080fd5b506104066104bf366004614117565b6113f3565b3480156104d057600080fd5b506103596104df366004614179565b611489565b3480156104f057600080fd5b506103596114ab565b34801561050557600080fd5b50610359610514366004614028565b611528565b34801561052557600080fd5b50610359610534366004614160565b611543565b34801561054557600080fd5b5061032f610554366004613fb5565b61023d6020526000908152604090205460ff1681565b34801561057657600080fd5b50610406610585366004614160565b6115bd565b34801561059657600080fd5b50610370611650565b3480156105ab57600080fd5b506104066105ba366004613fef565b61023a60209081526000928352604080842090915290825290205481565b3480156105e457600080fd5b5061015f5460ff1661032f565b6104066116df565b34801561060557600080fd5b50610406610614366004614179565b611a82565b34801561062557600080fd5b5061039d610634366004614160565b611b05565b34801561064557600080fd5b50610359610654366004613fb5565b611b7c565b34801561066557600080fd5b50610406610674366004613fb5565b611c3a565b34801561068557600080fd5b50610359611cc1565b34801561069a57600080fd5b506104066106a9366004613fb5565b611d38565b3480156106ba57600080fd5b50610359611df3565b3480156106cf57600080fd5b506101f5546001600160a01b031661039d565b3480156106ee57600080fd5b5061039d6106fd36600461419e565b611e4a565b34801561070e57600080fd5b5061032f61071d366004614179565b611e69565b34801561072e57600080fd5b50610370611e94565b610359610745366004613fb5565b611ea3565b34801561075657600080fd5b50610406610765366004613fb5565b61023e6020526000908152604090205481565b34801561078457600080fd5b50610406600081565b34801561079957600080fd5b506103596107a83660046140e9565b612363565b3480156107b957600080fd5b506103596107c83660046141fa565b612428565b3480156107d957600080fd5b506103596107e8366004613fef565b6124a2565b3480156107f957600080fd5b50610359610808366004614069565b6124f8565b34801561081957600080fd5b50610370610828366004614160565b61252a565b34801561083957600080fd5b50610406610848366004614160565b612604565b34801561085957600080fd5b506102365461032f90600160b01b900460ff1681565b34801561087b57600080fd5b506104067f9f2df0fed2c77648de5860a4cc508cd0818c85b8b8a1ab4ceeef8d981c8956a681565b3480156108af57600080fd5b506103596108be366004614179565b61261b565b3480156108cf57600080fd5b506104067f65d7a28e3265b37a6474929f336521b332c1681b933f6cb9f3376673440d862a81565b34801561090357600080fd5b5061032f610912366004613fef565b6001600160a01b03918216600090815260ce6020908152604080832093909416825291909152205460ff1690565b34801561094c57600080fd5b5061039d61095b366004613fb5565b61023b602052600090815260409020546001600160a01b031681565b34801561098357600080fd5b50610406612625565b34801561099857600080fd5b506103596109a7366004613fb5565b6126b7565b3480156109b857600080fd5b506104066109c7366004613fef565b6127a5565b3480156109d857600080fd5b506103596109e736600461433a565b61286e565b60006109f7826128b8565b92915050565b6101f5546001600160a01b03163314610a315760405162461bcd60e51b8152600401610a2890614611565b60405180910390fd5b565b606060c98054610a429061473c565b80601f0160208091040260200160405190810160405280929190818152602001828054610a6e9061473c565b8015610abb5780601f10610a9057610100808354040283529160200191610abb565b820191906000526020600020905b815481529060010190602001808311610a9e57829003601f168201915b5050505050905090565b600081815260cb60205260408120546001600160a01b0316610b3e5760405162461bcd60e51b815260206004820152602c60248201527f4552433732313a20617070726f76656420717565727920666f72206e6f6e657860448201526b34b9ba32b73a103a37b5b2b760a11b6064820152608401610a28565b50600090815260cd60205260409020546001600160a01b031690565b6000610b6582611b05565b9050806001600160a01b0316836001600160a01b03161415610bd35760405162461bcd60e51b815260206004820152602160248201527f4552433732313a20617070726f76616c20746f2063757272656e74206f776e656044820152603960f91b6064820152608401610a28565b336001600160a01b0382161480610bef5750610bef8133610912565b610c615760405162461bcd60e51b815260206004820152603860248201527f4552433732313a20617070726f76652063616c6c6572206973206e6f74206f7760448201527f6e6572206e6f7220617070726f76656420666f7220616c6c00000000000000006064820152608401610a28565b610c6b83836128dd565b505050565b600054610100900460ff1680610c89575060005460ff16155b610ca55760405162461bcd60e51b8152600401610a289061459c565b600054610100900460ff16158015610cc7576000805461ffff19166101011790555b610cd287878661294b565b610cda6129f7565b610ce76102285484612a72565b604080518082019091526003808252620312e360ec1b6020909201918252610d129161022791613e86565b5068015af1d78b58c4000061022b5561023185905561023580546001600160a01b031990811673cc9a0b7c43dc2a5f023bb9b738e45b0ef6b06e0490811790925561022e8054821673c02aaa39b223fe8d0a0e5c4f27ead9083c756cc217905561022f80548216905561023080548216736b175474e89094c44da98b954eedeac495271d0f17905561022d8054821690921790915561023380546001600160a01b03851692168217905560408051630261bf8b60e01b81529051630261bf8b91600481810192602092909190829003018186803b158015610df257600080fd5b505afa158015610e06573d6000803e3d6000fd5b505050506040513d601f19601f82011682018060405250810190610e2a9190613fd2565b61023480546001600160a01b03929092166001600160a01b03199283161790556102368054821673057835ad21a177dbdd3090bb1cae03eacf78fc6d90811790915561023280549092161790558015610e89576000805461ff00191690555b50505050505050565b6000610ea161015f5460ff1690565b15610ebe5760405162461bcd60e51b8152600401610a2890614572565b6101f5546001600160a01b03163314610ee95760405162461bcd60e51b8152600401610a2890614611565b610ef66102285433611e69565b610f125760405162461bcd60e51b8152600401610a28906145ea565b61023654600160b01b900460ff1615610f5c5760405162461bcd60e51b815260206004820152600c60248201526b27b733b7b4b733903637b0b760a11b6044820152606401610a28565b6001600160a01b03808316600081815261023b60205260408120546102345461022f54918516949081169387939283921614156110955761022d5460405163095ea7b360e01b81526001600160a01b039182166004820152602481018a9052479350869182169063095ea7b390604401602060405180830381600087803b158015610fe657600080fd5b505af1158015610ffa573d6000803e3d6000fd5b505050506040513d601f19601f8201168201806040525081019061101e9190614143565b5061022d54604051630402806960e51b81526001600160a01b038781166004830152602482018c9052336044830152909116906380500d2090606401600060405180830381600087803b15801561107457600080fd5b505af1158015611088573d6000803e3d6000fd5b5050505047915050611331565b6040516370a0823160e01b81523060048201526001600160a01b038416906370a082319060240160206040518083038186803b1580156110d457600080fd5b505afa1580156110e8573d6000803e3d6000fd5b505050506040513d601f19601f8201168201806040525081019061110c919061435e565b60405163095ea7b360e01b81526001600160a01b038681166004830152602482018b9052919350869182169063095ea7b390604401602060405180830381600087803b15801561115b57600080fd5b505af115801561116f573d6000803e3d6000fd5b505050506040513d601f19601f820116820180604052508101906111939190614143565b50604051631a4ca37b60e21b81526001600160a01b038981166004830152602482018b90523360448301528616906369328dec90606401602060405180830381600087803b1580156111e457600080fd5b505af11580156111f8573d6000803e3d6000fd5b505050506040513d601f19601f8201168201806040525081019061121c919061435e565b506040516370a0823160e01b81523060048201526001600160a01b038516906370a082319060240160206040518083038186803b15801561125c57600080fd5b505afa158015611270573d6000803e3d6000fd5b505050506040513d601f19601f82011682018060405250810190611294919061435e565b91506001600160a01b03841663a9059cbb336112b08580612a7c565b6040516001600160e01b031960e085901b1681526001600160a01b0390921660048301526024820152604401602060405180830381600087803b1580156112f657600080fd5b505af115801561130a573d6000803e3d6000fd5b505050506040513d601f19601f8201168201806040525081019061132e9190614143565b50505b8761133c8383612a7c565b1461137c5760405162461bcd60e51b815260206004820152601060248201526f084c2d8c2dcc6ca40dad2e6dac2e8c6d60831b6044820152606401610a28565b5050610236805460ff60b01b1916600160b01b1790555060009250505092915050565b6113aa335b82612a88565b6113c65760405162461bcd60e51b8152600401610a2890614646565b610c6b838383612b7b565b6113db8282612d26565b6000828152609760205260409020610c6b9082612d4c565b60006113fe83611c3a565b82106114605760405162461bcd60e51b815260206004820152602b60248201527f455243373231456e756d657261626c653a206f776e657220696e646578206f7560448201526a74206f6620626f756e647360a81b6064820152608401610a28565b506001600160a01b0391909116600090815260fb60209081526040808320938352929052205490565b6114938282612d61565b6000828152609760205260409020610c6b9082612ddf565b61015f5460ff166114f55760405162461bcd60e51b815260206004820152601460248201527314185d5cd8589b194e881b9bdd081c185d5cd95960621b6044820152606401610a28565b6101f5546001600160a01b031633146115205760405162461bcd60e51b8152600401610a2890614611565b610a31612df4565b610c6b838383604051806020016040528060008152506124f8565b61154c336113a4565b6115b15760405162461bcd60e51b815260206004820152603060248201527f4552433732314275726e61626c653a2063616c6c6572206973206e6f74206f7760448201526f1b995c881b9bdc88185c1c1c9bdd995960821b6064820152608401610a28565b6115ba81612e89565b50565b60006115c860fd5490565b821061162b5760405162461bcd60e51b815260206004820152602c60248201527f455243373231456e756d657261626c653a20676c6f62616c20696e646578206f60448201526b7574206f6620626f756e647360a01b6064820152608401610a28565b60fd828154811061163e5761163e6147e8565b90600052602060002001549050919050565b610227805461165e9061473c565b80601f016020809104026020016040519081016040528092919081815260200182805461168a9061473c565b80156116d75780601f106116ac576101008083540402835291602001916116d7565b820191906000526020600020905b8154815290600101906020018083116116ba57829003601f168201915b505050505081565b60006116ee61015f5460ff1690565b1561170b5760405162461bcd60e51b8152600401610a2890614572565b6101f5546001600160a01b031633146117365760405162461bcd60e51b8152600401610a2890614611565b6117436102285433611e69565b61175f5760405162461bcd60e51b8152600401610a28906145ea565b610238546001600160a01b03908116600090815261023b6020526040808220546102345491516370a0823160e01b81523060048201529084169384939216919083906370a082319060240160206040518083038186803b1580156117c257600080fd5b505afa1580156117d6573d6000803e3d6000fd5b505050506040513d601f19601f820116820180604052508101906117fa919061435e565b61022f54610238549192506001600160a01b03918216911614156118995761022d546102365460405163474cf53d60e01b81526001600160a01b038581166004830152306024830152600160a01b90920461ffff16604482015291169063474cf53d9034906064016000604051808303818588803b15801561187b57600080fd5b505af115801561188f573d6000803e3d6000fd5b50505050506119af565b610238546102375460405163095ea7b360e01b81526001600160a01b0385811660048301526024820192909252911690819063095ea7b390604401602060405180830381600087803b1580156118ee57600080fd5b505af1158015611902573d6000803e3d6000fd5b505050506040513d601f19601f820116820180604052508101906119269190614143565b5061023854610237546102365460405163e8eda9df60e01b81526001600160a01b0393841660048201526024810192909252306044830152600160a01b900461ffff1660648201529084169063e8eda9df90608401600060405180830381600087803b15801561199557600080fd5b505af11580156119a9573d6000803e3d6000fd5b50505050505b6040516370a0823160e01b81523060048201526000906001600160a01b038516906370a082319060240160206040518083038186803b1580156119f157600080fd5b505afa158015611a05573d6000803e3d6000fd5b505050506040513d601f19601f82011682018060405250810190611a29919061435e565b9050611a358280612f30565b8114611a765760405162461bcd60e51b815260206004820152601060248201526f084c2d8c2dcc6ca40dad2e6dac2e8c6d60831b6044820152606401610a28565b60009550505050505090565b6001600160a01b038116600090815261023c6020526040812054819060ff16611aaf575061023154611ae3565b6001600160a01b038316600090815261023c602052604090205460ff1615611ae35761023154611ae0906002612f3c565b90505b61023154611afd90611af786612710612f3c565b90612f48565b949350505050565b600081815260cb60205260408120546001600160a01b0316806109f75760405162461bcd60e51b815260206004820152602960248201527f4552433732313a206f776e657220717565727920666f72206e6f6e657869737460448201526832b73a103a37b5b2b760b91b6064820152608401610a28565b611ba67f9f2df0fed2c77648de5860a4cc508cd0818c85b8b8a1ab4ceeef8d981c8956a633611e69565b611c185760405162461bcd60e51b815260206004820152603d60248201527f4552433732315072657365744d696e7465725061757365724175746f49643a2060448201527f6d7573742068617665206d696e74657220726f6c6520746f206d696e740000006064820152608401610a28565b611c2b81611c266101c35490565b612f54565b6115ba6101c380546001019055565b60006001600160a01b038216611ca55760405162461bcd60e51b815260206004820152602a60248201527f4552433732313a2062616c616e636520717565727920666f7220746865207a65604482015269726f206164647265737360b01b6064820152608401610a28565b506001600160a01b0316600090815260cc602052604090205490565b6101f5546001600160a01b03163314611cec5760405162461bcd60e51b8152600401610a2890614611565b6101f5546040516000916001600160a01b0316907f8be0079c531659141344cd1fd0a4f28419497f9722a3daafe3b4186f6b6457e0908390a36101f580546001600160a01b0319169055565b61022f546000906001600160a01b0383811691161415611d625761022e546001600160a01b031691505b610232546040516335ea6a7560e01b81526001600160a01b03848116600483015260009216906335ea6a75906024016101406040518083038186803b158015611daa57600080fd5b505afa158015611dbe573d6000803e3d6000fd5b505050506040513d601f19601f82011682018060405250810190611de29190614377565b50909b9a5050505050505050505050565b61015f5460ff1615611e175760405162461bcd60e51b8152600401610a2890614572565b6101f5546001600160a01b03163314611e425760405162461bcd60e51b8152600401610a2890614611565b610a316130a2565b6000828152609760205260408120611e6290836130fc565b9392505050565b60009182526065602090815260408084206001600160a01b0393909316845291905290205460ff1690565b606060ca8054610a429061473c565b61015f5460ff1615611ec75760405162461bcd60e51b8152600401610a2890614572565b611ed46102285433611e69565b611ef05760405162461bcd60e51b8152600401610a28906145ea565b610230546001600160a01b03908116600081815261023b60205260408082205490516370a0823160e01b815230600482015293169283928392909182906370a082319060240160206040518083038186803b158015611f4e57600080fd5b505afa158015611f62573d6000803e3d6000fd5b505050506040513d601f19601f82011682018060405250810190611f86919061435e565b6040516370a0823160e01b81523060048201529091506000906001600160a01b038616906370a082319060240160206040518083038186803b158015611fcb57600080fd5b505afa158015611fdf573d6000803e3d6000fd5b505050506040513d601f19601f82011682018060405250810190612003919061435e565b61022b546040516323b872dd60e01b815232600482015230602482015260448101919091529091506001600160a01b038416906323b872dd90606401602060405180830381600087803b15801561205957600080fd5b505af115801561206d573d6000803e3d6000fd5b505050506040513d601f19601f820116820180604052508101906120919190614143565b506102305461022b546102365460405163e8eda9df60e01b81526001600160a01b0393841660048201526024810192909252306044830152600160a01b900461ffff1660648201529085169063e8eda9df90608401600060405180830381600087803b15801561210057600080fd5b505af1158015612114573d6000803e3d6000fd5b50506040516370a0823160e01b8152306004820152600092506001600160a01b03861691506370a082319060240160206040518083038186803b15801561215a57600080fd5b505afa15801561216e573d6000803e3d6000fd5b505050506040513d601f19601f82011682018060405250810190612192919061435e565b6040516370a0823160e01b81523060048201529091506000906001600160a01b038616906370a082319060240160206040518083038186803b1580156121d757600080fd5b505afa1580156121eb573d6000803e3d6000fd5b505050506040513d601f19601f8201168201806040525081019061220f919061435e565b90508184146122535760405162461bcd60e51b815260206004820152601060248201526f0c4c2d8c2dcc6ca40dad2e6dac2e8c6d60831b6044820152606401610a28565b600061225f8285612a7c565b610230549091506122b49061227c906001600160a01b0316611d38565b30600090815261023a60209081526040808320610230546001600160a01b031684529091529020546122ae9084612f30565b90612f3c565b30600090815261023a60209081526040808320610230546001600160a01b031684529091529020556122f36122e98487612a7c565b61022b5490612f30565b61022b556001600160a01b038a16600090815261023c60205260409020805460ff191660011790556123248a611b7c565b6040513381527f80ae0d06c818f692dc54275dbf01ac6745b53cde040f3151e30477b4d1136f2c9060200160405180910390a150505050505050505050565b6001600160a01b0382163314156123bc5760405162461bcd60e51b815260206004820152601960248201527f4552433732313a20617070726f766520746f2063616c6c6572000000000000006044820152606401610a28565b33600081815260ce602090815260408083206001600160a01b03871680855290835292819020805460ff191686151590811790915590519081529192917f17307eab39ab6107e8899845ad3d59bd9653f200f220920489ca2b5937696c31910160405180910390a35050565b600054610100900460ff1680612441575060005460ff16155b61245d5760405162461bcd60e51b8152600401610a289061459c565b600054610100900460ff1615801561247f576000805461ffff19166101011790555b61248a84848461294b565b801561249c576000805461ff00191690555b50505050565b6124ad600033611e69565b6124c95760405162461bcd60e51b8152600401610a28906145ea565b6001600160a01b03918216600090815261023b6020526040902080546001600160a01b03191691909216179055565b6125023383612a88565b61251e5760405162461bcd60e51b8152600401610a2890614646565b61249c84848484613108565b600081815260cb60205260409020546060906001600160a01b03166125a95760405162461bcd60e51b815260206004820152602f60248201527f4552433732314d657461646174613a2055524920717565727920666f72206e6f60448201526e3732bc34b9ba32b73a103a37b5b2b760891b6064820152608401610a28565b60006125b361313b565b905060008151116125d35760405180602001604052806000815250611e62565b806125dd8461314b565b6040516020016125ee92919061442c565b6040516020818303038152906040529392505050565b60008181526097602052604081206109f790613249565b6114938282613253565b30600090815261023a60209081526040808320610230546001600160a01b03168452909152812054156126b157610230546126ac906b033b2e3c9fd0803ce8000000906122ae9061267e906001600160a01b0316611d38565b30600090815261023a60209081526040808320610230546001600160a01b0316845290915290205490612f48565b905090565b50600090565b6101f5546001600160a01b031633146126e25760405162461bcd60e51b8152600401610a2890614611565b6001600160a01b0381166127475760405162461bcd60e51b815260206004820152602660248201527f4f776e61626c653a206e6577206f776e657220697320746865207a65726f206160448201526564647265737360d01b6064820152608401610a28565b6101f5546040516001600160a01b038084169216907f8be0079c531659141344cd1fd0a4f28419497f9722a3daafe3b4186f6b6457e090600090a36101f580546001600160a01b0319166001600160a01b0392909216919091179055565b6001600160a01b03808316600090815261023a60209081526040808320938516835292905290812054156128665761022f546001600160a01b038381169116141561284a5761022e54612843906b033b2e3c9fd0803ce8000000906122ae90612816906001600160a01b0316611d38565b6001600160a01b03808816600090815261023a60209081526040808320938a168352929052205490612f48565b90506109f7565b6128436b033b2e3c9fd0803ce80000006122ae61281685611d38565b5060006109f7565b612879600033611e69565b6128955760405162461bcd60e51b8152600401610a28906145ea565b610236805461ffff909216600160a01b0261ffff60a01b19909216919091179055565b60006001600160e01b0319821663780e9d6360e01b14806109f757506109f782613279565b600081815260cd6020526040902080546001600160a01b0319166001600160a01b038416908117909155819061291282611b05565b6001600160a01b03167f8c5be1e5ebec7d5bd14f71427d1e84f3dd0314c0f7b2291e5b200ac8c7c3b92560405160405180910390a45050565b600054610100900460ff1680612964575060005460ff16155b6129805760405162461bcd60e51b8152600401610a289061459c565b600054610100900460ff161580156129a2576000805461ffff19166101011790555b6129aa6132b9565b6129b26132b9565b6129ba6132b9565b6129c26132b9565b6129cc8484613323565b6129d46132b9565b6129dc6132b9565b6129e46133b8565b6129ec6132b9565b61248a84848461342e565b600054610100900460ff1680612a10575060005460ff16155b612a2c5760405162461bcd60e51b8152600401610a289061459c565b600054610100900460ff16158015612a4e576000805461ffff19166101011790555b612a566132b9565b612a5e6134f9565b80156115ba576000805461ff001916905550565b6113db82826135a8565b6000611e6282846146e2565b600081815260cb60205260408120546001600160a01b0316612b015760405162461bcd60e51b815260206004820152602c60248201527f4552433732313a206f70657261746f7220717565727920666f72206e6f6e657860448201526b34b9ba32b73a103a37b5b2b760a11b6064820152608401610a28565b6000612b0c83611b05565b9050806001600160a01b0316846001600160a01b03161480612b475750836001600160a01b0316612b3c84610ac5565b6001600160a01b0316145b80611afd57506001600160a01b03808216600090815260ce602090815260408083209388168352929052205460ff16611afd565b826001600160a01b0316612b8e82611b05565b6001600160a01b031614612bf65760405162461bcd60e51b815260206004820152602960248201527f4552433732313a207472616e73666572206f6620746f6b656e2074686174206960448201526839903737ba1037bbb760b91b6064820152608401610a28565b6001600160a01b038216612c585760405162461bcd60e51b8152602060048201526024808201527f4552433732313a207472616e7366657220746f20746865207a65726f206164646044820152637265737360e01b6064820152608401610a28565b612c638383836135b2565b612c6e6000826128dd565b6001600160a01b038316600090815260cc60205260408120805460019290612c979084906146e2565b90915550506001600160a01b038216600090815260cc60205260408120805460019290612cc5908490614697565b9091555050600081815260cb602052604080822080546001600160a01b0319166001600160a01b0386811691821790925591518493918716917fddf252ad1be2c89b69c2b068fc378daa952ba7f163c4a11628f55a4df523b3ef91a4505050565b600082815260656020526040902060010154612d4281336135bd565b610c6b8383613621565b6000611e62836001600160a01b0384166136a7565b6001600160a01b0381163314612dd15760405162461bcd60e51b815260206004820152602f60248201527f416363657373436f6e74726f6c3a2063616e206f6e6c792072656e6f756e636560448201526e103937b632b9903337b91039b2b63360891b6064820152608401610a28565b612ddb82826136ee565b5050565b6000611e62836001600160a01b038416613755565b61015f5460ff16612e3e5760405162461bcd60e51b815260206004820152601460248201527314185d5cd8589b194e881b9bdd081c185d5cd95960621b6044820152606401610a28565b61015f805460ff191690557f5db9ee0a495bf2e6ff9c91a7834c1ba4fdd244a5e8aa4e537bd38aeae4b073aa335b6040516001600160a01b03909116815260200160405180910390a1565b6000612e9482611b05565b9050612ea2816000846135b2565b612ead6000836128dd565b6001600160a01b038116600090815260cc60205260408120805460019290612ed69084906146e2565b9091555050600082815260cb602052604080822080546001600160a01b0319169055518391906001600160a01b038416907fddf252ad1be2c89b69c2b068fc378daa952ba7f163c4a11628f55a4df523b3ef908390a45050565b6000611e628284614697565b6000611e6282846146af565b6000611e6282846146c3565b6001600160a01b038216612faa5760405162461bcd60e51b815260206004820181905260248201527f4552433732313a206d696e7420746f20746865207a65726f20616464726573736044820152606401610a28565b600081815260cb60205260409020546001600160a01b03161561300f5760405162461bcd60e51b815260206004820152601c60248201527f4552433732313a20746f6b656e20616c7265616479206d696e746564000000006044820152606401610a28565b61301b600083836135b2565b6001600160a01b038216600090815260cc60205260408120805460019290613044908490614697565b9091555050600081815260cb602052604080822080546001600160a01b0319166001600160a01b03861690811790915590518392907fddf252ad1be2c89b69c2b068fc378daa952ba7f163c4a11628f55a4df523b3ef908290a45050565b61015f5460ff16156130c65760405162461bcd60e51b8152600401610a2890614572565b61015f805460ff191660011790557f62e78cea01bee320cd4e420270b5ea74000d11b0c9f74754ebdbfc544b05a258612e6c3390565b6000611e628383613842565b613113848484612b7b565b61311f848484846138c8565b61249c5760405162461bcd60e51b8152600401610a2890614520565b60606101c48054610a429061473c565b60608161316f5750506040805180820190915260018152600360fc1b602082015290565b8160005b8115613199578061318381614777565b91506131929050600a836146af565b9150613173565b60008167ffffffffffffffff8111156131b4576131b46147fe565b6040519080825280601f01601f1916602001820160405280156131de576020820181803683370190505b5090505b8415611afd576131f36001836146e2565b9150613200600a86614792565b61320b906030614697565b60f81b818381518110613220576132206147e8565b60200101906001600160f81b031916908160001a905350613242600a866146af565b94506131e2565b60006109f7825490565b60008281526065602052604090206001015461326f81336135bd565b610c6b83836136ee565b60006001600160e01b031982166380ac58cd60e01b14806132aa57506001600160e01b03198216635b5e139f60e01b145b806109f757506109f7826139d5565b600054610100900460ff16806132d2575060005460ff16155b6132ee5760405162461bcd60e51b8152600401610a289061459c565b600054610100900460ff16158015612a5e576000805461ffff191661010117905580156115ba576000805461ff001916905550565b600054610100900460ff168061333c575060005460ff16155b6133585760405162461bcd60e51b8152600401610a289061459c565b600054610100900460ff1615801561337a576000805461ffff19166101011790555b825161338d9060c9906020860190613e86565b5081516133a19060ca906020850190613e86565b508015610c6b576000805461ff0019169055505050565b600054610100900460ff16806133d1575060005460ff16155b6133ed5760405162461bcd60e51b8152600401610a289061459c565b600054610100900460ff1615801561340f576000805461ffff19166101011790555b61015f805460ff1916905580156115ba576000805461ff001916905550565b600054610100900460ff1680613447575060005460ff16155b6134635760405162461bcd60e51b8152600401610a289061459c565b600054610100900460ff16158015613485576000805461ffff19166101011790555b8151613499906101c4906020850190613e86565b506134a5600033612a72565b6134cf7f9f2df0fed2c77648de5860a4cc508cd0818c85b8b8a1ab4ceeef8d981c8956a633612a72565b61248a7f65d7a28e3265b37a6474929f336521b332c1681b933f6cb9f3376673440d862a33612a72565b600054610100900460ff1680613512575060005460ff16155b61352e5760405162461bcd60e51b8152600401610a289061459c565b600054610100900460ff16158015613550576000805461ffff19166101011790555b6101f580546001600160a01b0319163390811790915560405181906000907f8be0079c531659141344cd1fd0a4f28419497f9722a3daafe3b4186f6b6457e0908290a35080156115ba576000805461ff001916905550565b612ddb8282613621565b610c6b8383836139fa565b6135c78282611e69565b612ddb576135df816001600160a01b03166014613a6d565b6135ea836020613a6d565b6040516020016135fb92919061445b565b60408051601f198184030181529082905262461bcd60e51b8252610a289160040161450d565b61362b8282611e69565b612ddb5760008281526065602090815260408083206001600160a01b03851684529091529020805460ff191660011790556136633390565b6001600160a01b0316816001600160a01b0316837f2f8788117e7eff1d82e926ec794901d17c78024a50270940304540a733656f0d60405160405180910390a45050565b6000818152600183016020526040812054612866575081546001818101845560008481526020808220909301849055845484825282860190935260409020919091556109f7565b6136f88282611e69565b15612ddb5760008281526065602090815260408083206001600160a01b0385168085529252808320805460ff1916905551339285917ff6391f5c32d9c69d2a47ea670b442974b53935d1edc7fd64eb21e047a839171b9190a45050565b600081815260018301602052604081205480156138385760006137796001836146e2565b855490915060009061378d906001906146e2565b905060008660000182815481106137a6576137a66147e8565b90600052602060002001549050808760000184815481106137c9576137c96147e8565b6000918252602080832090910192909255828152600189019091526040902084905586548790806137fc576137fc6147d2565b600190038181906000526020600020016000905590558660010160008781526020019081526020016000206000905560019450505050506109f7565b60009150506109f7565b815460009082106138a05760405162461bcd60e51b815260206004820152602260248201527f456e756d657261626c655365743a20696e646578206f7574206f6620626f756e604482015261647360f01b6064820152608401610a28565b8260000182815481106138b5576138b56147e8565b9060005260206000200154905092915050565b60006001600160a01b0384163b156139ca57604051630a85bd0160e11b81526001600160a01b0385169063150b7a029061390c9033908990889088906004016144d0565b602060405180830381600087803b15801561392657600080fd5b505af1925050508015613956575060408051601f3d908101601f19168201909252613953918101906141dd565b60015b6139b0573d808015613984576040519150601f19603f3d011682016040523d82523d6000602084013e613989565b606091505b5080516139a85760405162461bcd60e51b8152600401610a2890614520565b805181602001fd5b6001600160e01b031916630a85bd0160e11b149050611afd565b506001949350505050565b60006001600160e01b03198216635a05180f60e01b14806109f757506109f782613c09565b613a05838383613c3e565b61015f5460ff1615610c6b5760405162461bcd60e51b815260206004820152602b60248201527f4552433732315061757361626c653a20746f6b656e207472616e73666572207760448201526a1a1a5b19481c185d5cd95960aa1b6064820152608401610a28565b60606000613a7c8360026146c3565b613a87906002614697565b67ffffffffffffffff811115613a9f57613a9f6147fe565b6040519080825280601f01601f191660200182016040528015613ac9576020820181803683370190505b509050600360fc1b81600081518110613ae457613ae46147e8565b60200101906001600160f81b031916908160001a905350600f60fb1b81600181518110613b1357613b136147e8565b60200101906001600160f81b031916908160001a9053506000613b378460026146c3565b613b42906001614697565b90505b6001811115613bba576f181899199a1a9b1b9c1cb0b131b232b360811b85600f1660108110613b7657613b766147e8565b1a60f81b828281518110613b8c57613b8c6147e8565b60200101906001600160f81b031916908160001a90535060049490941c93613bb381614725565b9050613b45565b508315611e625760405162461bcd60e51b815260206004820181905260248201527f537472696e67733a20686578206c656e67746820696e73756666696369656e746044820152606401610a28565b60006001600160e01b03198216637965db0b60e01b14806109f757506301ffc9a760e01b6001600160e01b03198316146109f7565b6001600160a01b038316613c9957613c948160fd8054600083815260fe60205260408120829055600182018355919091527f9346ac6dd7de6b96975fec380d4d994c4c12e6a8897544f22915316cc6cca2800155565b613cbc565b816001600160a01b0316836001600160a01b031614613cbc57613cbc8382613cf6565b6001600160a01b038216613cd357610c6b81613d93565b826001600160a01b0316826001600160a01b031614610c6b57610c6b8282613e42565b60006001613d0384611c3a565b613d0d91906146e2565b600083815260fc6020526040902054909150808214613d60576001600160a01b038416600090815260fb60209081526040808320858452825280832054848452818420819055835260fc90915290208190555b50600091825260fc602090815260408084208490556001600160a01b03909416835260fb81528383209183525290812055565b60fd54600090613da5906001906146e2565b600083815260fe602052604081205460fd8054939450909284908110613dcd57613dcd6147e8565b906000526020600020015490508060fd8381548110613dee57613dee6147e8565b600091825260208083209091019290925582815260fe909152604080822084905585825281205560fd805480613e2657613e266147d2565b6001900381819060005260206000200160009055905550505050565b6000613e4d83611c3a565b6001600160a01b03909316600090815260fb60209081526040808320868452825280832085905593825260fc9052919091209190915550565b828054613e929061473c565b90600052602060002090601f016020900481019282613eb45760008555613efa565b82601f10613ecd57805160ff1916838001178555613efa565b82800160010185558215613efa579182015b82811115613efa578251825591602001919060010190613edf565b50613f06929150613f0a565b5090565b5b80821115613f065760008155600101613f0b565b600067ffffffffffffffff80841115613f3a57613f3a6147fe565b604051601f8501601f19908116603f01168101908282118183101715613f6257613f626147fe565b81604052809350858152868686011115613f7b57600080fd5b858560208301376000602087830101525050509392505050565b600082601f830112613fa657600080fd5b611e6283833560208501613f1f565b600060208284031215613fc757600080fd5b8135611e6281614814565b600060208284031215613fe457600080fd5b8151611e6281614814565b6000806040838503121561400257600080fd5b823561400d81614814565b9150602083013561401d81614814565b809150509250929050565b60008060006060848603121561403d57600080fd5b833561404881614814565b9250602084013561405881614814565b929592945050506040919091013590565b6000806000806080858703121561407f57600080fd5b843561408a81614814565b9350602085013561409a81614814565b925060408501359150606085013567ffffffffffffffff8111156140bd57600080fd5b8501601f810187136140ce57600080fd5b6140dd87823560208401613f1f565b91505092959194509250565b600080604083850312156140fc57600080fd5b823561410781614814565b9150602083013561401d81614829565b6000806040838503121561412a57600080fd5b823561413581614814565b946020939093013593505050565b60006020828403121561415557600080fd5b8151611e6281614829565b60006020828403121561417257600080fd5b5035919050565b6000806040838503121561418c57600080fd5b82359150602083013561401d81614814565b600080604083850312156141b157600080fd5b50508035926020909101359150565b6000602082840312156141d257600080fd5b8135611e6281614837565b6000602082840312156141ef57600080fd5b8151611e6281614837565b60008060006060848603121561420f57600080fd5b833567ffffffffffffffff8082111561422757600080fd5b61423387838801613f95565b9450602086013591508082111561424957600080fd5b61425587838801613f95565b9350604086013591508082111561426b57600080fd5b5061427886828701613f95565b9150509250925092565b60008060008060008060c0878903121561429b57600080fd5b863567ffffffffffffffff808211156142b357600080fd5b6142bf8a838b01613f95565b975060208901359150808211156142d557600080fd5b6142e18a838b01613f95565b96506040890135955060608901359150808211156142fe57600080fd5b5061430b89828a01613f95565b935050608087013561431c81614814565b915060a087013561432c81614814565b809150509295509295509295565b60006020828403121561434c57600080fd5b813561ffff81168114611e6257600080fd5b60006020828403121561437057600080fd5b5051919050565b6000806000806000806000806000806101408b8d03121561439757600080fd5b8a51995060208b0151985060408b0151975060608b0151965060808b0151955060a08b0151945060c08b0151935060e08b015192506101008b015191506101208b015164ffffffffff811681146143ed57600080fd5b809150509295989b9194979a5092959850565b600081518084526144188160208601602086016146f9565b601f01601f19169290920160200192915050565b6000835161443e8184602088016146f9565b8351908301906144528183602088016146f9565b01949350505050565b7f416363657373436f6e74726f6c3a206163636f756e74200000000000000000008152600083516144938160178501602088016146f9565b7001034b99036b4b9b9b4b733903937b6329607d1b60179184019182015283516144c48160288401602088016146f9565b01602801949350505050565b6001600160a01b038581168252841660208201526040810183905260806060820181905260009061450390830184614400565b9695505050505050565b602081526000611e626020830184614400565b60208082526032908201527f4552433732313a207472616e7366657220746f206e6f6e20455243373231526560408201527131b2b4bb32b91034b6b83632b6b2b73a32b960711b606082015260800190565b60208082526010908201526f14185d5cd8589b194e881c185d5cd95960821b604082015260600190565b6020808252602e908201527f496e697469616c697a61626c653a20636f6e747261637420697320616c72656160408201526d191e481a5b9a5d1a585b1a5e995960921b606082015260800190565b6020808252600d908201526c556e617574686f72697a65643f60981b604082015260600190565b6020808252818101527f4f776e61626c653a2063616c6c6572206973206e6f7420746865206f776e6572604082015260600190565b60208082526031908201527f4552433732313a207472616e736665722063616c6c6572206973206e6f74206f6040820152701ddb995c881b9bdc88185c1c1c9bdd9959607a1b606082015260800190565b600082198211156146aa576146aa6147a6565b500190565b6000826146be576146be6147bc565b500490565b60008160001904831182151516156146dd576146dd6147a6565b500290565b6000828210156146f4576146f46147a6565b500390565b60005b838110156147145781810151838201526020016146fc565b8381111561249c5750506000910152565b600081614734576147346147a6565b506000190190565b600181811c9082168061475057607f821691505b6020821081141561477157634e487b7160e01b600052602260045260246000fd5b50919050565b600060001982141561478b5761478b6147a6565b5060010190565b6000826147a1576147a16147bc565b500690565b634e487b7160e01b600052601160045260246000fd5b634e487b7160e01b600052601260045260246000fd5b634e487b7160e01b600052603160045260246000fd5b634e487b7160e01b600052603260045260246000fd5b634e487b7160e01b600052604160045260246000fd5b6001600160a01b03811681146115ba57600080fd5b80151581146115ba57600080fd5b6001600160e01b0319811681146115ba57600080fdfea2646970667358221220f0c5b722e8db40bb59f3928cee728627ddc90e582b7059ba1479225bddb9951e64736f6c63430008060033",
    "sourcePath": "/Users/lucus/Documents/GitHub/loop/contract/contracts/aHack.sol",
    "compiler": {
        "name": "solc",
        "version": "0.8.6+commit.11564f7e"
    },
    "functionHashes": {
        "DEFAULT_ADMIN_ROLE()": "a217fddf",
        "MINTER_ROLE()": "d5391393",
        "PAUSER_ROLE()": "e63ab1e9",
        "_borrow(uint256,address)": "232d46d2",
        "_claimAave()": "06fdac40",
        "_getNFT(address)": "99f11010",
        "_repay()": "5f8850fb",
        "approve(address,uint256)": "095ea7b3",
        "avgIndex(address,address)": "5bae7f1b",
        "balanceOf(address)": "70a08231",
        "balanceOf(address,address)": "f7888aec",
        "burn(uint256)": "42966c68",
        "collaterals(address)": "eeb97d3b",
        "getApproved(uint256)": "081812fc",
        "getLiquidityIndex(address)": "7303b22c",
        "getLoanFees(uint256,address)": "5fa0a368",
        "getRoleAdmin(bytes32)": "248a9ca3",
        "getRoleMember(bytes32,uint256)": "9010d07c",
        "getRoleMemberCount(bytes32)": "ca15c873",
        "grantRole(bytes32,address)": "2f2ff15d",
        "hasRole(bytes32,address)": "91d14854",
        "initialize(string,string,string)": "a6487c53",
        "initialize(string,string,uint256,string,address,address)": "09a7ea7b",
        "isApprovedForAll(address,address)": "e985e9c5",
        "loan()": "d285b7b4",
        "loanCumulatedFees(address)": "9ac42063",
        "loopAaveMarket(address)": "49de8e21",
        "mint(address)": "6a627842",
        "name()": "06fdde03",
        "owner()": "8da5cb5b",
        "ownerOf(uint256)": "6352211e",
        "pause()": "8456cb59",
        "paused()": "5c975abb",
        "renounceOwnership()": "715018a6",
        "renounceRole(bytes32,address)": "36568abe",
        "revokeRole(bytes32,address)": "d547741f",
        "safeTransferFrom(address,address,uint256)": "42842e0e",
        "safeTransferFrom(address,address,uint256,bytes)": "b88d4fde",
        "setApprovalForAll(address,bool)": "a22cb465",
        "setCollaterals(address,address)": "a7926442",
        "setReferralCode(uint16)": "fa43b69c",
        "supportsInterface(bytes4)": "01ffc9a7",
        "symbol()": "95d89b41",
        "tokenByIndex(uint256)": "4f6ccce7",
        "tokenOfOwnerByIndex(address,uint256)": "2f745c59",
        "tokenURI(uint256)": "c87b56dd",
        "totalSupply()": "18160ddd",
        "transferFrom(address,address,uint256)": "23b872dd",
        "transferOwnership(address)": "f2fde38b",
        "unpause()": "3f4ba83a",
        "valueStake()": "efb6ef07",
        "version()": "54fd4d50"
    },
    "gasEstimates": {
        "creation": {
            "codeDepositCost": "3712600",
            "executionCost": "4196",
            "totalCost": "3716796"
        },
        "external": {
            "DEFAULT_ADMIN_ROLE()": "262",
            "MINTER_ROLE()": "328",
            "PAUSER_ROLE()": "262",
            "_borrow(uint256,address)": "infinite",
            "_claimAave()": "2478",
            "_getNFT(address)": "infinite",
            "_repay()": "infinite",
            "approve(address,uint256)": "infinite",
            "avgIndex(address,address)": "infinite",
            "balanceOf(address)": "2716",
            "balanceOf(address,address)": "infinite",
            "burn(uint256)": "infinite",
            "collaterals(address)": "2663",
            "getApproved(uint256)": "4805",
            "getLiquidityIndex(address)": "infinite",
            "getLoanFees(uint256,address)": "infinite",
            "getRoleAdmin(bytes32)": "2512",
            "getRoleMember(bytes32,uint256)": "infinite",
            "getRoleMemberCount(bytes32)": "infinite",
            "grantRole(bytes32,address)": "infinite",
            "hasRole(bytes32,address)": "2809",
            "initialize(string,string,string)": "infinite",
            "initialize(string,string,uint256,string,address,address)": "infinite",
            "isApprovedForAll(address,address)": "infinite",
            "loan()": "2427",
            "loanCumulatedFees(address)": "2625",
            "loopAaveMarket(address)": "2626",
            "mint(address)": "infinite",
            "name()": "infinite",
            "owner()": "2443",
            "ownerOf(uint256)": "2645",
            "pause()": "31966",
            "paused()": "2383",
            "renounceOwnership()": "30208",
            "renounceRole(bytes32,address)": "infinite",
            "revokeRole(bytes32,address)": "infinite",
            "safeTransferFrom(address,address,uint256)": "infinite",
            "safeTransferFrom(address,address,uint256,bytes)": "infinite",
            "setApprovalForAll(address,bool)": "infinite",
            "setCollaterals(address,address)": "infinite",
            "setReferralCode(uint16)": "26972",
            "supportsInterface(bytes4)": "infinite",
            "symbol()": "infinite",
            "tokenByIndex(uint256)": "6849",
            "tokenOfOwnerByIndex(address,uint256)": "5036",
            "tokenURI(uint256)": "infinite",
            "totalSupply()": "2350",
            "transferFrom(address,address,uint256)": "infinite",
            "transferOwnership(address)": "30482",
            "unpause()": "31896",
            "valueStake()": "infinite",
            "version()": "infinite"
        }
    }
}